{
  "_format": "hh-sol-artifact-1",
  "contractName": "Liquidity",
  "sourceName": "contracts/Liquidity.sol",
  "abi": [
    {
      "inputs": [],
      "stateMutability": "nonpayable",
      "type": "constructor"
    },
    {
      "inputs": [
        {
          "internalType": "string",
          "name": "_tokenA",
          "type": "string"
        },
        {
          "internalType": "string",
          "name": "_tokenB",
          "type": "string"
        },
        {
          "internalType": "string",
          "name": "_tokenA_address",
          "type": "string"
        },
        {
          "internalType": "string",
          "name": "_tokenB_address",
          "type": "string"
        },
        {
          "internalType": "string",
          "name": "_poolAddress",
          "type": "string"
        },
        {
          "internalType": "string",
          "name": "_network",
          "type": "string"
        },
        {
          "internalType": "string",
          "name": "_transactionHash",
          "type": "string"
        }
      ],
      "name": "addLiquidity",
      "outputs": [],
      "stateMutability": "nonpayable",
      "type": "function"
    },
    {
      "inputs": [],
      "name": "admin",
      "outputs": [
        {
          "internalType": "address",
          "name": "",
          "type": "address"
        }
      ],
      "stateMutability": "view",
      "type": "function"
    },
    {
      "inputs": [
        {
          "internalType": "address",
          "name": "_address",
          "type": "address"
        }
      ],
      "name": "getAllLiquidity",
      "outputs": [
        {
          "components": [
            {
              "internalType": "uint256",
              "name": "id",
              "type": "uint256"
            },
            {
              "internalType": "address",
              "name": "owner",
              "type": "address"
            },
            {
              "internalType": "string",
              "name": "tokenA",
              "type": "string"
            },
            {
              "internalType": "string",
              "name": "tokenB",
              "type": "string"
            },
            {
              "internalType": "string",
              "name": "tokenA_address",
              "type": "string"
            },
            {
              "internalType": "string",
              "name": "tokenB_address",
              "type": "string"
            },
            {
              "internalType": "string",
              "name": "poolAddress",
              "type": "string"
            },
            {
              "internalType": "string",
              "name": "network",
              "type": "string"
            },
            {
              "internalType": "string",
              "name": "transactionHash",
              "type": "string"
            },
            {
              "internalType": "uint256",
              "name": "timecreated",
              "type": "uint256"
            }
          ],
          "internalType": "struct Liquidity.LiquidityInfo[]",
          "name": "",
          "type": "tuple[]"
        }
      ],
      "stateMutability": "view",
      "type": "function"
    },
    {
      "inputs": [
        {
          "internalType": "address",
          "name": "",
          "type": "address"
        },
        {
          "internalType": "uint256",
          "name": "",
          "type": "uint256"
        }
      ],
      "name": "liquidities",
      "outputs": [
        {
          "internalType": "uint256",
          "name": "id",
          "type": "uint256"
        },
        {
          "internalType": "address",
          "name": "owner",
          "type": "address"
        },
        {
          "internalType": "string",
          "name": "tokenA",
          "type": "string"
        },
        {
          "internalType": "string",
          "name": "tokenB",
          "type": "string"
        },
        {
          "internalType": "string",
          "name": "tokenA_address",
          "type": "string"
        },
        {
          "internalType": "string",
          "name": "tokenB_address",
          "type": "string"
        },
        {
          "internalType": "string",
          "name": "poolAddress",
          "type": "string"
        },
        {
          "internalType": "string",
          "name": "network",
          "type": "string"
        },
        {
          "internalType": "string",
          "name": "transactionHash",
          "type": "string"
        },
        {
          "internalType": "uint256",
          "name": "timecreated",
          "type": "uint256"
        }
      ],
      "stateMutability": "view",
      "type": "function"
    },
    {
      "inputs": [],
      "name": "liquidityID",
      "outputs": [
        {
          "internalType": "uint256",
          "name": "",
          "type": "uint256"
        }
      ],
      "stateMutability": "view",
      "type": "function"
    },
    {
      "inputs": [],
      "name": "transferEther",
      "outputs": [],
      "stateMutability": "payable",
      "type": "function"
    }
  ],
  "bytecode": "0x608060405234801561001057600080fd5b50336000806101000a81548173ffffffffffffffffffffffffffffffffffffffff021916908373ffffffffffffffffffffffffffffffffffffffff160217905550611a35806100606000396000f3fe6080604052600436106100555760003560e01c8063043b536b1461005a5780636e608d401461008357806392a5f2f0146100ae578063c9b25f0f146100eb578063d52559d0146100f5578063f851a4401461013b575b600080fd5b34801561006657600080fd5b50610081600480360381019061007c9190610f35565b610166565b005b34801561008f57600080fd5b5061009861034e565b6040516100a591906110b4565b60405180910390f35b3480156100ba57600080fd5b506100d560048036038101906100d0919061112d565b610354565b6040516100e291906113bd565b60405180910390f35b6100f361085b565b005b34801561010157600080fd5b5061011c6004803603810190610117919061140b565b61096e565b6040516101329a999897969594939291906114a4565b60405180910390f35b34801561014757600080fd5b50610150610db7565b60405161015d9190611571565b60405180910390f35b60026000815480929190610179906115bb565b919050555060006002549050600160003373ffffffffffffffffffffffffffffffffffffffff1673ffffffffffffffffffffffffffffffffffffffff16815260200190815260200160002060405180610140016040528060025481526020013373ffffffffffffffffffffffffffffffffffffffff1681526020018a81526020018981526020018881526020018781526020018681526020018581526020018481526020014281525090806001815401808255809150506001900390600052602060002090600a02016000909190919091506000820151816000015560208201518160010160006101000a81548173ffffffffffffffffffffffffffffffffffffffff021916908373ffffffffffffffffffffffffffffffffffffffff16021790555060408201518160020190816102b1919061180f565b5060608201518160030190816102c7919061180f565b5060808201518160040190816102dd919061180f565b5060a08201518160050190816102f3919061180f565b5060c0820151816006019081610309919061180f565b5060e082015181600701908161031f919061180f565b50610100820151816008019081610336919061180f565b50610120820151816009015550505050505050505050565b60025481565b6060600160008373ffffffffffffffffffffffffffffffffffffffff1673ffffffffffffffffffffffffffffffffffffffff168152602001908152602001600020805480602002602001604051908101604052809291908181526020016000905b8282101561085057838290600052602060002090600a020160405180610140016040529081600082015481526020016001820160009054906101000a900473ffffffffffffffffffffffffffffffffffffffff1673ffffffffffffffffffffffffffffffffffffffff1673ffffffffffffffffffffffffffffffffffffffff16815260200160028201805461044990611632565b80601f016020809104026020016040519081016040528092919081815260200182805461047590611632565b80156104c25780601f10610497576101008083540402835291602001916104c2565b820191906000526020600020905b8154815290600101906020018083116104a557829003601f168201915b505050505081526020016003820180546104db90611632565b80601f016020809104026020016040519081016040528092919081815260200182805461050790611632565b80156105545780601f1061052957610100808354040283529160200191610554565b820191906000526020600020905b81548152906001019060200180831161053757829003601f168201915b5050505050815260200160048201805461056d90611632565b80601f016020809104026020016040519081016040528092919081815260200182805461059990611632565b80156105e65780601f106105bb576101008083540402835291602001916105e6565b820191906000526020600020905b8154815290600101906020018083116105c957829003601f168201915b505050505081526020016005820180546105ff90611632565b80601f016020809104026020016040519081016040528092919081815260200182805461062b90611632565b80156106785780601f1061064d57610100808354040283529160200191610678565b820191906000526020600020905b81548152906001019060200180831161065b57829003601f168201915b5050505050815260200160068201805461069190611632565b80601f01602080910402602001604051908101604052809291908181526020018280546106bd90611632565b801561070a5780601f106106df5761010080835404028352916020019161070a565b820191906000526020600020905b8154815290600101906020018083116106ed57829003601f168201915b5050505050815260200160078201805461072390611632565b80601f016020809104026020016040519081016040528092919081815260200182805461074f90611632565b801561079c5780601f106107715761010080835404028352916020019161079c565b820191906000526020600020905b81548152906001019060200180831161077f57829003601f168201915b505050505081526020016008820180546107b590611632565b80601f01602080910402602001604051908101604052809291908181526020018280546107e190611632565b801561082e5780601f106108035761010080835404028352916020019161082e565b820191906000526020600020905b81548152906001019060200180831161081157829003601f168201915b50505050508152602001600982015481525050815260200190600101906103b5565b505050509050919050565b6000341161089e576040517f08c379a00000000000000000000000000000000000000000000000000000000081526004016108959061192d565b60405180910390fd5b60008060009054906101000a900473ffffffffffffffffffffffffffffffffffffffff1673ffffffffffffffffffffffffffffffffffffffff16346040516108e59061197e565b60006040518083038185875af1925050503d8060008114610922576040519150601f19603f3d011682016040523d82523d6000602084013e610927565b606091505b505090508061096b576040517f08c379a0000000000000000000000000000000000000000000000000000000008152600401610962906119df565b60405180910390fd5b50565b6001602052816000526040600020818154811061098a57600080fd5b90600052602060002090600a0201600091509150508060000154908060010160009054906101000a900473ffffffffffffffffffffffffffffffffffffffff16908060020180546109da90611632565b80601f0160208091040260200160405190810160405280929190818152602001828054610a0690611632565b8015610a535780601f10610a2857610100808354040283529160200191610a53565b820191906000526020600020905b815481529060010190602001808311610a3657829003601f168201915b505050505090806003018054610a6890611632565b80601f0160208091040260200160405190810160405280929190818152602001828054610a9490611632565b8015610ae15780601f10610ab657610100808354040283529160200191610ae1565b820191906000526020600020905b815481529060010190602001808311610ac457829003601f168201915b505050505090806004018054610af690611632565b80601f0160208091040260200160405190810160405280929190818152602001828054610b2290611632565b8015610b6f5780601f10610b4457610100808354040283529160200191610b6f565b820191906000526020600020905b815481529060010190602001808311610b5257829003601f168201915b505050505090806005018054610b8490611632565b80601f0160208091040260200160405190810160405280929190818152602001828054610bb090611632565b8015610bfd5780601f10610bd257610100808354040283529160200191610bfd565b820191906000526020600020905b815481529060010190602001808311610be057829003601f168201915b505050505090806006018054610c1290611632565b80601f0160208091040260200160405190810160405280929190818152602001828054610c3e90611632565b8015610c8b5780601f10610c6057610100808354040283529160200191610c8b565b820191906000526020600020905b815481529060010190602001808311610c6e57829003601f168201915b505050505090806007018054610ca090611632565b80601f0160208091040260200160405190810160405280929190818152602001828054610ccc90611632565b8015610d195780601f10610cee57610100808354040283529160200191610d19565b820191906000526020600020905b815481529060010190602001808311610cfc57829003601f168201915b505050505090806008018054610d2e90611632565b80601f0160208091040260200160405190810160405280929190818152602001828054610d5a90611632565b8015610da75780601f10610d7c57610100808354040283529160200191610da7565b820191906000526020600020905b815481529060010190602001808311610d8a57829003601f168201915b505050505090806009015490508a565b60008054906101000a900473ffffffffffffffffffffffffffffffffffffffff1681565b6000604051905090565b600080fd5b600080fd5b600080fd5b600080fd5b6000601f19601f8301169050919050565b7f4e487b7100000000000000000000000000000000000000000000000000000000600052604160045260246000fd5b610e4282610df9565b810181811067ffffffffffffffff82111715610e6157610e60610e0a565b5b80604052505050565b6000610e74610ddb565b9050610e808282610e39565b919050565b600067ffffffffffffffff821115610ea057610e9f610e0a565b5b610ea982610df9565b9050602081019050919050565b82818337600083830152505050565b6000610ed8610ed384610e85565b610e6a565b905082815260208101848484011115610ef457610ef3610df4565b5b610eff848285610eb6565b509392505050565b600082601f830112610f1c57610f1b610def565b5b8135610f2c848260208601610ec5565b91505092915050565b600080600080600080600060e0888a031215610f5457610f53610de5565b5b600088013567ffffffffffffffff811115610f7257610f71610dea565b5b610f7e8a828b01610f07565b975050602088013567ffffffffffffffff811115610f9f57610f9e610dea565b5b610fab8a828b01610f07565b965050604088013567ffffffffffffffff811115610fcc57610fcb610dea565b5b610fd88a828b01610f07565b955050606088013567ffffffffffffffff811115610ff957610ff8610dea565b5b6110058a828b01610f07565b945050608088013567ffffffffffffffff81111561102657611025610dea565b5b6110328a828b01610f07565b93505060a088013567ffffffffffffffff81111561105357611052610dea565b5b61105f8a828b01610f07565b92505060c088013567ffffffffffffffff8111156110805761107f610dea565b5b61108c8a828b01610f07565b91505092959891949750929550565b6000819050919050565b6110ae8161109b565b82525050565b60006020820190506110c960008301846110a5565b92915050565b600073ffffffffffffffffffffffffffffffffffffffff82169050919050565b60006110fa826110cf565b9050919050565b61110a816110ef565b811461111557600080fd5b50565b60008135905061112781611101565b92915050565b60006020828403121561114357611142610de5565b5b600061115184828501611118565b91505092915050565b600081519050919050565b600082825260208201905092915050565b6000819050602082019050919050565b61118f8161109b565b82525050565b61119e816110ef565b82525050565b600081519050919050565b600082825260208201905092915050565b60005b838110156111de5780820151818401526020810190506111c3565b60008484015250505050565b60006111f5826111a4565b6111ff81856111af565b935061120f8185602086016111c0565b61121881610df9565b840191505092915050565b60006101408301600083015161123c6000860182611186565b50602083015161124f6020860182611195565b506040830151848203604086015261126782826111ea565b9150506060830151848203606086015261128182826111ea565b9150506080830151848203608086015261129b82826111ea565b91505060a083015184820360a08601526112b582826111ea565b91505060c083015184820360c08601526112cf82826111ea565b91505060e083015184820360e08601526112e982826111ea565b91505061010083015184820361010086015261130582826111ea565b91505061012083015161131c610120860182611186565b508091505092915050565b60006113338383611223565b905092915050565b6000602082019050919050565b60006113538261115a565b61135d8185611165565b93508360208202850161136f85611176565b8060005b858110156113ab578484038952815161138c8582611327565b94506113978361133b565b925060208a01995050600181019050611373565b50829750879550505050505092915050565b600060208201905081810360008301526113d78184611348565b905092915050565b6113e88161109b565b81146113f357600080fd5b50565b600081359050611405816113df565b92915050565b6000806040838503121561142257611421610de5565b5b600061143085828601611118565b9250506020611441858286016113f6565b9150509250929050565b611454816110ef565b82525050565b600082825260208201905092915050565b6000611476826111a4565b611480818561145a565b93506114908185602086016111c0565b61149981610df9565b840191505092915050565b6000610140820190506114ba600083018d6110a5565b6114c7602083018c61144b565b81810360408301526114d9818b61146b565b905081810360608301526114ed818a61146b565b90508181036080830152611501818961146b565b905081810360a0830152611515818861146b565b905081810360c0830152611529818761146b565b905081810360e083015261153d818661146b565b9050818103610100830152611552818561146b565b90506115626101208301846110a5565b9b9a5050505050505050505050565b6000602082019050611586600083018461144b565b92915050565b7f4e487b7100000000000000000000000000000000000000000000000000000000600052601160045260246000fd5b60006115c68261109b565b91507fffffffffffffffffffffffffffffffffffffffffffffffffffffffffffffffff82036115f8576115f761158c565b5b600182019050919050565b7f4e487b7100000000000000000000000000000000000000000000000000000000600052602260045260246000fd5b6000600282049050600182168061164a57607f821691505b60208210810361165d5761165c611603565b5b50919050565b60008190508160005260206000209050919050565b60006020601f8301049050919050565b600082821b905092915050565b6000600883026116c57fffffffffffffffffffffffffffffffffffffffffffffffffffffffffffffffff82611688565b6116cf8683611688565b95508019841693508086168417925050509392505050565b6000819050919050565b600061170c6117076117028461109b565b6116e7565b61109b565b9050919050565b6000819050919050565b611726836116f1565b61173a61173282611713565b848454611695565b825550505050565b600090565b61174f611742565b61175a81848461171d565b505050565b5b8181101561177e57611773600082611747565b600181019050611760565b5050565b601f8211156117c35761179481611663565b61179d84611678565b810160208510156117ac578190505b6117c06117b885611678565b83018261175f565b50505b505050565b600082821c905092915050565b60006117e6600019846008026117c8565b1980831691505092915050565b60006117ff83836117d5565b9150826002028217905092915050565b611818826111a4565b67ffffffffffffffff81111561183157611830610e0a565b5b61183b8254611632565b611846828285611782565b600060209050601f8311600181146118795760008415611867578287015190505b61187185826117f3565b8655506118d9565b601f19841661188786611663565b60005b828110156118af5784890151825560018201915060208501945060208101905061188a565b868310156118cc57848901516118c8601f8916826117d5565b8355505b6001600288020188555050505b505050505050565b7f416d6f756e742073686f756c642062652067726561746572207468616e203000600082015250565b6000611917601f8361145a565b9150611922826118e1565b602082019050919050565b600060208201905081810360008301526119468161190a565b9050919050565b600081905092915050565b50565b600061196860008361194d565b915061197382611958565b600082019050919050565b60006119898261195b565b9150819050919050565b7f54726e73666572206661696c6564000000000000000000000000000000000000600082015250565b60006119c9600e8361145a565b91506119d482611993565b602082019050919050565b600060208201905081810360008301526119f8816119bc565b905091905056fea2646970667358221220420d68bdda7c9b696ec11a433fbf37bf419dd4e928f4aebc97e1ee137e5916fc64736f6c63430008170033",
  "linkReferences": {},
  "deployedLinkReferences": {}
}